:020000040800F2
:10000000C83E0020050100086723000841140008CD
:10001000C9220008A9010008D52700080000000037
:100020000000000000000000000000006B2300083A
:10003000B70200080000000069230008BD23000883
:100040001F0100081F0100081F0100081F01000810
:100050001F0100081F0100081F0100081F01000800
:100060001F0100081F0100081F0100081F010008F0
:100070001F0100081F0100081F0100081F010008E0
:100080001F0100081F0100081F0100081F010008D0
:100090001F0100081F0100081F0100081F010008C0
:1000A0001F0100081F0100081F0100081F010008B0
:1000B0001F0100081F010008212400081F0100087B
:1000C0001F0100081F0100081F0100081F01000890
:1000D0001F010008D92600081F0100081F010008A1
:1000E0001F0100081F0100081F010008DFF810D0E1
:1000F00000F048F800480047012A0008AFF30080EC
:10010000C83E00200648804706480047FEE7FEE755
:10011000FEE7FEE7FEE7FEE7FEE7FEE7FEE7FEE7B7
:100120001D240008ED00000840EA01039B0703D0EE
:1001300009E008C9121F08C0042AFAD203E011F826
:10014000013B00F8013B521EF9D27047D2B201E0E8
:1001500000F8012B491EFBD270470022F6E710B5CC
:1001600013460A4604461946FFF7F0FF204610BD25
:10017000034611F8012B00F8012B002AF9D118468B
:1001800070470000064C074D06E0E06840F00103B0
:1001900094E8070098471034AC42F6D3FFF7AAFF63
:1001A000BCA50008DCA50008FEE710B5002301226D
:1001B000C2548B545B1CDBB2140601D51B2400E037
:1001C000002484EA42045440E2B2012AF0D10178CA
:1001D00080F8FF1010BD0000F0B50F490022D1E9F2
:1001E000055605E004D0B15CC1F1FF01695C00E097
:1001F000002181F0630400234F0047EAD111C9B206
:100200005B1C4C40DBB2042BF6D38454521CD2B29C
:10021000002AE7D1F0BD00000000002010B5002347
:100220001A46845C9C4201D1CA54FF22521C12F02F
:10023000FF02F6D15B1C13F0FF03F2D110BD70B5C5
:100240000C4606460D25102202F0C5FA1034102186
:10025000304602F0A5F8304602F088F8304602F049
:100260005DF810222146304602F0B5FA10346D1EBA
:1002700015F0FF05EBD11021304602F091F8304621
:1002800002F074F821463046BDE87040102202F0BA
:10029000A2BA11F8013B521E00F8013B12F0FF0216
:1002A000F7D1704701784278027082784270C27844
:1002B0008270C17070477047FEB500201024CDE9F0
:1002C00000044FF47845014602902B4611A23020DD
:1002D00001F08CFC4FF6FF760095114FCDE90164DB
:1002E0000423FA891421002001F09AFE0095CDE93B
:1002F000016404237A792821002001F091FE009501
:10030000CDE9016400210423BA89084601F088FE82
:10031000FEBD0000BBB6D3ADCAB9D3C30000000018
:1003200000000020F0B50A7803784D1C441C1146EB
:10033000184602F004F807462978207801F0FFFFFC
:1003400080EA07066978607801F0F9FF80EA06071D
:10035000A978A07801F0F3FF7840F0BD10B590F8CF
:1003600021100024022903D00421816301243DE0EF
:1003700001680A6822F00E020A6001680A6822F029
:1003800001020A601A4A0168914201D1012121E06B
:10039000174A1432914201D110211BE0144A28322D
:1003A000914201D1891515E0114A3C32914201D1A7
:1003B00089140FE00E4A5032914202D14FF480313D
:1003C00008E00B4A6432914202D14FF4801101E0FF
:1003D0004FF08071064A083A5160012180F82110DF
:1003E000002180F82010416B01B18847204610BDE4
:1003F0000800024070B5044600F010F90546601C84
:1004000002D004480078044400F008F9401BA042E0
:10041000FAD370BD4C0000202DE9F84FDFF8B891F9
:10042000002409F1040A0AF1040B23460F270BF1FB
:10043000040EC9E00125A5402A40AA427DD1674E9D
:10044000D1F804C0ACEB0608B44532D014DCBCF1E2
:10045000030F3AD009DCBCF1000F2AD0BCF1010F28
:100460001CD0BCF1020F31D11DE0BCF1110F17D02F
:10047000BCF1120F2AD119E0B8F5881F19D006DC9B
:10048000B8F5803F15D0B8F5801F1FD111E0B8F541
:10049000001F0ED0B8F5041F18D10AE0CB6815E094
:1004A000CB681B1D12E0CB6808330FE0CB680C3320
:1004B0000CE08B682BB1012B4FF0080303D0456192
:1004C00004E0042302E0056100E00023FF2A01D8D4
:1004D000064601E000F104064FEA840501D9A5F1C2
:1004E0002005D6F8008007FA05FC28EA0C0803FA74
:1004F00005F548EA0508C6F800804D68ED0062D5AC
:10050000374DAE6946F00106AE61AD6924F00306D1
:1005100005F001050095334D06EB050CDCF808509D
:10052000A607360F07FA06F825EA0805DFF8B880AF
:10053000404503D14FF0000817E044E0DFF8AC80FD
:10054000404502D14FF001080FE0DFF8A48040459C
:1005500002D14FF0020808E0DFF89880404502D150
:100560004FF0030801E04FF0040808FA06F848EAE3
:100570000508CCF808804D68D9F80060ED034D46B9
:1005800001D5164300E096432E604D68DAF800600E
:10059000AD03554601D5164300E096432E604D68E5
:1005A000DBF80060ED025D4601D5164300E096439E
:1005B0002E604D68DEF80060AD02754601D5164329
:1005C00000E096432E60641C0D682A46E5407FF4E7
:1005D00031AFBDE8F88F00000004014000001110A9
:1005E000001002400000014000080140000C0140E2
:1005F00000100140001401408068084000D0012034
:100600007047C26821EA02030A4043EA02410161DD
:1006100070470AB1016170470904FBE7014880682F
:10062000704700004C0000200248816802781144A5
:10063000816070474C000020074810B5016841F008
:1006400010010160032000F075F8002000F006F8AA
:1006500000F024F8002010BD0020024070B50D4DC0
:1006600004464FF47A712878B1FBF0F00A49096822
:10067000B1FBF0F000F0F2FA48B9102C07D20022DA
:100680002146501E00F036F800206C6070BD01203D
:1006900070BD00004C000020580000200C4808B538
:1006A000816941F001018161816901F001010091DD
:1006B000C16941F08051C161C06900F08050009073
:1006C0000448416821F0E06141F08061416008BD6B
:1006D0000010024000000140002809DB00F01F026A
:1006E000012191404009800000F1E020C0F8001194
:1006F00070470000F0B40E4B1B680C46C3F3022396
:10070000C3F10705042D00D90425191D072901D2BD
:10071000002300E0DB1E012606FA05F1491E2140F8
:1007200099409E40761E16403143F0BC02F05FB8FF
:100730000CED00E0064900F0070208684FF6FF03E1
:10074000184040EA0220034A104308607047000046
:100750000CED00E00000FA052DE9F0470F4605001A
:1007600061D0434E306800F00700B84209D23068CB
:1007700020F0070038433060306800F00700B842CE
:1007800051D128683B4C810712D5400703D56068DA
:1007900040F4E06060602878000703D5606840F4AA
:1007A000605060606068A96820F0F00008436060F5
:1007B0002878C00728D06868012810D0216802284E
:1007C00010D0890700292EDA616821F00301014366
:1007D0006160FFF723FF804641F288390DE0216810
:1007E0008903EFE78901EDE7FFF718FFA0EB0801A8
:1007F000494502D90320BDE8F0876068696800F0C8
:100800000C00B0EB810FEFD1306800F00700B84268
:100810000BD9306820F0070038433060306800F0B2
:100820000700B84201D00120E5E72878400705D548
:100830006068E96820F4E060084360602878000799
:1008400006D56068296920F4605040EAC100606004
:1008500000F03EF86168084AC1F30311515CC840DA
:100860000649086006480068FFF7F8FE0020C2E766
:100870000020024000100240EC6C000858000020EC
:100880005000002001480068704700005800002018
:100890000448054900684968044AC1F30221515CD3
:1008A000C84070475800002000100240FC6C00084F
:1008B0000448054900684968044AC1F3C221515CF3
:1008C000C84070475800002000100240FC6C00082F
:1008D00012A185B00FC98DE80F0014A0144A00685A
:1008E00004905168134801F00C03042B10D0082B1E
:1008F0000ED1C1F38343C9031DF803000AD5516823
:1009000004AAC1F34041515C0A4A5043B0FBF1F0E4
:1009100005B0704708494843FAE7000002030405A0
:10092000060708090A0B0C0D0E0F1010010200003B
:100930000010024000127A0000093D002DE9F84F36
:10094000040070D02078C04DC00749D06868C0F35B
:100950008100012807D06868C0F38100022809D10E
:100960006868C00306D52868800339D56068002808
:10097000E7D035E06068B0F5803F0BD010B1B0F53E
:10098000A02F11D0286820F480302860286820F437
:10099000802002E0286840F480302860606890B1D0
:1009A000FFF73CFE06460AE0286840F480202860F5
:1009B000F0E700BFFFF732FE801B642873D8286879
:1009C0008003F7D50CE0FFF729FE064605E000BFDF
:1009D000FFF724FE801B6428F0D828688003F7D432
:1009E00020789A4E80074FF001094FF0000839D562
:1009F000686810F00C0F07D06868C0F38100022807
:100A000009D16868C00306D42868800714D5206916
:100A1000012808D110E02069B0B1C6F80090FFF7B6
:100A2000FDFD074605E00AE1FFF7F8FDC01B0228BF
:100A3000C4D828688007F7D52868616920F0F800D5
:100A400040EAC10028600DE0C6F80080FFF7E6FD2F
:100A5000074604E0FFF7E2FDC01B022823D8286800
:100A60008007F7D4207800072CD57948A169D9B13F
:100A7000C0F80090FFF7D2FD074604E0FFF7CEFD77
:100A8000C01B02280FD8686A8007F7D571484FF459
:100A9000FA510068B0FBF1F0009000BF0098411ED1
:100AA0000091FAD20EE080E0C0F80080FFF7B6FDBA
:100AB000074604E0FFF7B2FDC01B022875D8686A3C
:100AC0008007F7D42078400760D5E8690027C00088
:100AD00008D4E86940F08050E861E869012700F037
:100AE000805000905C480168C90513D401688346B2
:100AF00041F480710160FFF791FD824606E000BF7E
:100B0000FFF78CFDA0EB0A0064284ED8DBF800004C
:100B1000C005F5D5E06801280AD008B1052813D032
:100B2000286A20F001002862286A20F0040002E010
:100B3000286A40F001002862E06841F2883B98B1E1
:100B4000FFF76CFD82460BE0286A40F00400286243
:100B5000EEE700BFFFF762FDA0EB0A0159455AD846
:100B6000286A8007F6D50CE0FFF758FD824605E0BD
:100B7000FFF754FDA0EB0A0159454CD8286A8007BD
:100B8000F6D41FB1E86920F08050E861E06988B3CD
:100B90006968C1F38101022944D00228C6F8608047
:100BA00004D0FFF73BFD044638E034E0FFF736FDA4
:100BB000074604E0FFF732FDC01B02282BD8286847
:100BC0008001F7D4206AB0F5803F05D16868A1683C
:100BD00020F4003008436860D4E9080108436968DC
:100BE00021F4741108436860C6F86090FFF716FDA1
:100BF000044606E025E000BFFFF710FD001B0228B9
:100C000009D828688001F7D51BE000BFFFF706FD73
:100C1000001B022802D90320BDE8F88F2868800154
:100C2000F4D40EE00128F7D06868226A00F480311D
:100C3000914204D1616A00F47010884201D0012011
:100C4000EAE70020E8E7000000100240000042420E
:100C500080044242580000200070004010B5401E41
:100C6000B0F1807F01D3012010BD4FF0E02460611E
:100C70000F21601701F0BBFD0020A061072020615B
:100C8000002010BD7047704770B590F83C20012AD5
:100C900026D0012480F83C40022280F83D200368E1
:100CA0005A689D6822F070060A6832435A600D4BFC
:100CB00002689A4208D0B2F1804F05D00A4B9A429E
:100CC00002D00A4B9A4204D1496825F080031943A7
:100CD000916080F83D40002180F83C10084670BDCE
:100CE000022070BD002C01400004004000080040BC
:100CF00010B5040003D094F83D0010B107E00120C6
:100D000010BD002084F83C00204600F01FF80220AF
:100D100084F83D00211D206801F088FB012084F843
:100D2000460084F83E0084F83F0084F8400084F8D0
:100D3000410084F8420084F8430084F8440084F8B9
:100D4000450084F83D00002010BD000008B5006893
:100D50000B49884212D10B48C16941F00401C161BD
:100D6000C069002200F00400009011461E20FFF729
:100D7000C1FCBDE808401E20FFF7AEBC08BD000066
:100D8000000800400010024090F83D10012901D0F9
:100D900001207047022180F83D100168CA6842F0C6
:100DA0000102CA6000680B49884208D0B0F1804F48
:100DB00005D00949884202D00849884204D1816897
:100DC00001F00701062903D0016841F0010101602B
:100DD00000207047002C0140000400400008004043
:100DE00070B5044690F83C00012817D0012584F81E
:100DF0003C50022084F83D002068826822F077028F
:100E000022F47F4282600868502830D00DDC202810
:100E10004DD005DC98B310283BD148E0022070BDCE
:100E2000302844D0402834D139E0602828D07028B8
:100E300006D0B0F5805F2CD0B0F5005F29D10AE074
:100E4000CB68D1E90121206801F026FB2068816888
:100E500041F0770109E0CB68D1E90121206801F078
:100E60001BFB2068816841F48041816011E0CA6801
:100E70004968206801F022FB5021206807E016E055
:100E8000CA684968206801F02AFB6021206801F0E7
:100E90000DFB84F83D50002084F83C0070BDCA680A
:100EA0004968206801F00AFB40212068EFE72268CA
:100EB00001461046EBE7704770B5044600680169CB
:100EC0004FF00005C943890715D4C168C943890794
:100ED00011D4E91E01610120207720688069800714
:100EE000204602D0FFF7E7FF04E000F098F8204624
:100EF00000F096F8257720680169C943490717D49F
:100F0000C168C943490713D46FF00401016102208D
:100F100020772068806910F4407F204602D0FFF7D8
:100F2000CAFF04E000F07BF8204600F079F825774E
:100F300020680169C943090716D4C168C943090774
:100F400012D46FF008010161042020772068C06985
:100F50008007204602D0FFF7AEFF04E000F05FF804
:100F6000204600F05DF8257720680169C943C9066D
:100F700017D4C168C943C90613D46FF010010161C9
:100F8000082020772068C06910F4407F204602D0F6
:100F9000FFF791FF04E000F042F8204600F040F82F
:100FA000257720680169C943C90708D1C168C943C9
:100FB000C90704D1891E0161204600F033F820687A
:100FC0000169C943090609D4C168C943090605D4A2
:100FD0006FF0800101612046FFF754FE206801692F
:100FE000C943490609D4C168C943490605D46FF00D
:100FF00040010161204600F03FF820680169C943C3
:1010000089060BD4C168C943890607D46FF0200153
:1010100001612046BDE87040FFF735BE70BD7047E6
:1010200070470000124910B5884220D100F0AAFB99
:1010300010488179491CCAB282718189012329B182
:10104000491E0904090C818100D10370C18911B1C5
:10105000491EC18107E0417929B1491E11F0FF0104
:10106000417100D14372642A01D30021817110BD06
:10107000E81B0020000000207047704770B5026830
:1010800004461068D168536910F00F0F52D003F076
:10109000010501F490762E435FD0C20705D0CA0542
:1010A00003D5E26B42F00102E263420705D5DA079D
:1010B00003D0E26B42F00202E263820705D5DA0751
:1010C00003D0E26B42F00402E263020707D501F0AD
:1010D00020022A4303D0E26B42F00802E263E26B93
:1010E000002A33D0800604D5880602D5204601F0B8
:1010F0001EFA20684069E16BC0F38010090700D434
:1011000028B3204601F005FA2068416949061AD53E
:10111000416921F040014161606BA0B12D494163FB
:10112000606BFFF71BF9002810D0606B416BBDE8C6
:1011300070400847830610D58B060ED52046BDE8C3
:10114000704001F0F4B92046FFF797FF70BD2046CC
:10115000FFF793FF0020E06370BD03062BD50B065D
:1011600029D594F839002128F6D1A068B0F5805F20
:1011700001D12069B0B1206A411C21622168007848
:101180004860E08C401E0004000CE084E4D120683C
:10119000C16821F08001C1602068C16841F0400150
:1011A000C16070BD206A0088C0F308005060206AEA
:1011B000801C2062E5E74006F3D54806F1D5D168EA
:1011C000204621F04001D160202184F8391000F040
:1011D00036F970BD0325000870B5040004D094F8FA
:1011E0003900002510B106E0012070BD84F83850A8
:1011F000204600F023F8242084F839002068C168D4
:1012000021F40051C160204601F0D8F9206801693D
:1012100021F4904101612068416921F02A01416176
:101220002068C16841F40051C160E563202084F862
:10123000390084F83A00002070BD000030B585B058
:101240000024009401940294039400681B4988428E
:1012500032D11B48816941F480418161816901F487
:1012600080410491816941F0080181618069154DD7
:1012700000F008000490402000900220019003201C
:10128000039069462846FFF7C7F88020CDE900049F
:10129000694628460294FFF7BFF80B48416841F0C1
:1012A000E06141F004014160002211462520FFF772
:1012B00021FA2520FFF710FA05B030BD00380140B3
:1012C00000100240000C0140000001402DE9F84FE1
:1012D000044690F83A009A4616460D46202851D109
:1012E000EDB1E6B194F8380001284BD0012084F824
:1012F00038000027E763222084F83A00FFF78EF9D0
:10130000A6858146E685A0684FF48058404501D106
:10131000206938B12E46002584F8387027E0012076
:10132000BDE8F88F0026F7E74B4600222021204633
:10133000CDF800A001F09EF908B10320F0E726B136
:10134000A06840451BD038B108E020684068C0F371
:10135000080025F8020B07E0206980B1206840688A
:1013600000F07F0006F8010BE08D401EE085E08D67
:101370000028D9D1202084F83A000020D0E7206846
:101380004068EFE70220CBE7704700002DE9F84303
:10139000044690F839001F4616460D4620284CD1C9
:1013A000C5B1BEB194F83800012846D0012084F8B8
:1013B00038004FF00008C4F83C80212084F8390040
:1013C000FFF72CF9A6848146E684A068B0F5805F1B
:1013D00003D004E00120BDE8F883206928B12E463F
:1013E0005FF0000584F838800EE00026FAE78021DF
:1013F000204601F03FF9A0B9AEB116F8010B216803
:101400004860E08C401EE084E08C4B464FF00002C8
:1014100000970028EBD14FF04001204601F02AF957
:1014200030B10320D7E735F8020BC0F30800E6E738
:10143000202084F839000020CDE70220CBE7704758
:10144000FEE770B50C4606460D25E031102201F08E
:10145000C2F9D034304600F0E1F81022214630467F
:1014600000F0F6F83046103C00F0C7F86D1E15F09D
:10147000FF05EFD1304600F0D1F821463046BDE8F7
:101480007040102200F0E4B82DE9F04346788578EA
:10149000047890F803C084EA060383EA0C0286EA23
:1014A000050784EA05016B4087EA0C0781EA0C0115
:1014B0005FEA046802D54FF01B0801E04FF0000816
:1014C00088EA4404E4B204705FEA066802D54FF08B
:1014D0001B0801E04FF0000888EA4606F6B24670A5
:1014E0005FEA056802D54FF01B0801E04FF00008E5
:1014F00088EA4505EDB285705FEA0C6802D54FF0C9
:101500001B0801E04FF0000888EA4C0C84EA06084A
:1015100088EA07080CF0FF0C86EA05074F4085EAC9
:101520000C01514084EA0C025A4080F803C02306A3
:1015300001D51B2300E0002383EA4403DCB20470DE
:10154000330601D51B2300E0002383EA4603DBB208
:1015500043702E0601D51B2600E0002686EA4505CD
:10156000EEB286705FEA0C6501D51B2500E0002510
:1015700085EA4C0505F0FF0C84EA060585EA0809B2
:1015800083EA0C0888EA07074D4080F803C088EA20
:101590000208210601D51B2100E0002181EA440157
:1015A000C9B201701A0601D51B2200E0002282EAAE
:1015B0004302D3B24370320601D51B2200E0002261
:1015C00082EA4602D2B282705FEA0C6401D51B2423
:1015D00000E0002484EA4C0459406240514081EA12
:1015E000090381EA070281EA05040370427081EA77
:1015F00008018470C170BDE8F08310B50446FFF7A0
:1016000043FF201DFFF740FF04F10800FFF73CFFF8
:1016100004F10C00BDE81040FFF736BF417B427A71
:101620004273427942724278427141708178827A83
:10163000827081728179827B82718173C178C27973
:10164000C270C27AC271C27BC272C173704700009D
:1016500030B5064B047811F8015B521E1C5D6C40DE
:1016600000F8014B12F0FF02F4D130BD701D0020D4
:1016700010B586B0002000900190029003900E48B3
:10168000816941F00401816180690C4C00F0040023
:10169000049001223F212046FEF7BBFF3F2001219D
:1016A000CDE900010220CDE9021069462046FEF78F
:1016B000B3FE06B010BD000000100240000801405B
:1016C0003CB52EA12022096801912D49521E12F02D
:1016D000FF0211F8013B00F8013BF7D110F8041CA0
:1016E0008DF8001010F8031C8DF8011010F8021C82
:1016F0008DF8021010F8011C8DF803100446202507
:10170000E80604D005F01F00102818D01BE068463A
:10171000FEF7C8FD0421684600F042FE042201A93C
:10172000684601F058F89DF80400010601D51B2118
:1017300000E0002181EA40008DF8040003E004216C
:10174000684600F02DFE0422A4F12001684601F055
:1017500042F89DF8000004F8010B9DF8010004F820
:10176000010B9DF8020004F8020B2D1D9DF80300EB
:10177000EDB204F8010CF02DC2D33CBD0100000015
:10178000280000202DE9F041194F4FF480413846E0
:10179000FEF732FF0026174C012590B16570E681F7
:1017A0004FF400513846FEF727FFA8B184F80250E5
:1017B0004FF480513846FEF71FFF98B1E570BDE841
:1017C000F08160780128EBD1C820607166704FF419
:1017D000FA70E0812571E3E7A0780128E8D1A670CE
:1017E000E571E5E7E0780128E9D1E670A572E6E762
:1017F000000C0140000000202DE9F04107461C4686
:1018000015460E462A2000F06FFC781C00F061FCA3
:10181000681C00F05EFC2B2000F066FC06F11A004C
:1018200000F057FC04F11A0000F053FCBDE8F04151
:101830002C2000F059BC10B514460B460246FFF7A9
:10184000DBFF2046BDE8104000F043BC2DE9F04727
:101850001F4616460C4680465B1E521EDDF8209041
:10186000FFF7CAFF08E0454603E0484600F031FCB8
:101870006D1CB542F9D3641CBC42F4D3BDE8F087BB
:1018800038B5FFF7F5FE964C002208212046FEF7FA
:10189000C0FE6420FEF7AEFD012208212046FEF7BF
:1018A000B8FE6420FEF7A6FD012211462046FEF791
:1018B000B0FE6420FEF79EFD112000F015FC78209C
:1018C000FEF798FDB12000F00FFC052000F020FC91
:1018D0003C2000F01DFC3C2000F01AFCB22000F07F
:1018E00003FC052000F014FC3C2000F011FC3C201F
:1018F00000F00EFCB32000F0F7FB052000F008FC20
:101900003C2000F005FC3C2000F002FC052000F02B
:10191000FFFB3C2000F0FCFB3C2000F0F9FBB42076
:1019200000F0E2FB032000F0F3FBC02000F0DCFB42
:10193000AB2000F0EDFB0B2000F0EAFB042000F0F0
:10194000E7FBC12000F0D0FBC52000F0E1FBC22086
:1019500000F0CAFB0D2000F0DBFB002000F0D8FBFC
:10196000C32000F0C1FB8D2000F0D2FB6A2000F004
:10197000CFFBC42000F0B8FB8D2000F0C9FBEE20A7
:1019800000F0C6FBC52000F0AFFB0F2000F0C0FB4D
:10199000E02000F0A9FB072000F0BAFB0E2000F0C9
:1019A000B7FB082000F0B4FB072000F0B1FB1020CB
:1019B00000F0AEFB072000F0ABFB022000F0A8FB1C
:1019C000072000F0A5FB092000F0A2FB0F2000F08B
:1019D0009FFB252000F09CFB362000F099FB0020A7
:1019E00000F096FB082000F093FB042000F090FB31
:1019F000102000F08DFBE12000F076FB0A2000F0C3
:101A000087FB0D2000F084FB082000F081FB0720FD
:101A100000F07EFB0F2000F07BFB072000F078FB3E
:101A2000022000F075FB072000F072FB092000F097
:101A30006FFB0F2000F06CFB252000F069FB3520C8
:101A400000F066FB002000F063FB092000F060FB63
:101A5000042000F05DFB102000F05AFBFC2000F099
:101A600043FB802000F054FB3A2000F03DFB0520B2
:101A700000F04EFB362000F037FB782000F048FBEA
:101A8000212000F031FB292000F02EFB2A2000F05D
:101A90002BFB002000F03CFB1A2000F039FB00205B
:101AA00000F036FB692000F033FB2B2000F01CFB1C
:101AB000002000F02DFB012000F02AFB002000F0A8
:101AC00027FBA02000F024FB2C2000F00DFB0020C1
:101AD0005023A02201460090FFF7B8FE38BD000059
:101AE000000801402DE9FF4F81B00446DDF83C902D
:101AF00000904FEA59074FF00008780700D0012006
:101B000000EBD70000FB09FB203AD0B2039002980B
:101B1000E21900EB090301462046521E5B1EFFF747
:101B20006BFE002551E000BFB9F10C0F28D0B9F1D0
:101B3000100F2CD0B9F1180F2CD0B9F1200F46D1CD
:101B40002649039801EB80105FF0000610F805A00D
:101B50004FF0010101FA06F1109801EA0A0100B301
:101B600021B12046049A0299FFF765FE0098641C93
:101B7000201AB84224D10298009C401C029023E015
:101B80000398174900EB400001EB8000DCE71549A2
:101B9000039803E00398144900EB400001EB0010A8
:101BA000D2E709B1049800E00E9800F092FA08F12B
:101BB0000100C0B2B0FBF7F1804607FB118048B1CD
:101BC000761CF6B2082EC3D36D1C5D45ACD305B0B0
:101BD000BDE8F08F4FF00008F6E7000038890008F4
:101BE000046D000878710008687700082DE9FE4F41
:101BF0009946DDE90D4615468A460746DDF83080F0
:101C000013E00C2C16D0102C1FD0182C28D0202C10
:101C10000ED1CDF80080CDE901464B462A4651460B
:101C2000384600F089F92744AD1C28780028E8D10F
:101C3000BDE8FE8FCDF80080CDE901464B462A462F
:101C40005146384600F018F8EDE7CDF80080CDE9B0
:101C500001464B462A465146384600F083F8E2E7F3
:101C6000CDF80080CDE901464B462A46514638461C
:101C700000F0ECF8D7E700002DE9FF4F83B0804675
:101C8000119D00904FF00009680700D0012000EB83
:101C9000D50000FB05FB05200027029007EB87001D
:101CA00000EBC7012E48059A10F8113012789342C4
:101CB0004CD100EB41000190417805984078814279
:101CC00044D1049808EB050243194046521E5B1E9E
:101CD0000499FFF791FD002636E00198002400EBFF
:101CE000060A12989AF8021000284FF0010000FA34
:101CF00004F001EA000112D021B14046069A04998D
:101D0000FFF799FD009808F10108A8EB0000A84230
:101D100014D10498DDF80080401C049012E009B151
:101D2000069800E0109800F0D4F909F10100C0B263
:101D3000B0FBF5F1814605FB119070B1641CE4B273
:101D4000082CCED3761CF6B25E45C6D302987F1C13
:101D50008742A3D307B0BDE8F08F4FF00009F1E749
:101D6000F8A000082DE9FF4F83B08046119D009038
:101D70004FF00009680700D0012000EBD50000FB00
:101D800005FB1B20002702902F48059A07EB07113F
:101D900010F81130127893424CD100EB41000190C1
:101DA000417805984078814244D1049808EB0502B7
:101DB00043194046521E5B1E0499FFF71DFD002685
:101DC00036E00198002400EB060A12989AF80210F7
:101DD00000284FF0010000FA04F001EA000112D0DF
:101DE00021B14046069A0499FFF725FD009808F1B5
:101DF0000108A8EB0000A84214D10498DDF8008087
:101E0000401C049012E009B1069800E0109800F020
:101E100060F909F10100C0B2B0FBF5F1814605FBA4
:101E2000119070B1641CE4B2082CCED3761CF6B2CB
:101E30005E45C6D302987F1C8742A5D307B0BDE894
:101E4000F08F4FF00009F1E77AA100082DE9FF4F6C
:101E500083B08046119D00904FF00009680700D0C4
:101E6000012000EBD50000FB05FB052000270290B8
:101E700007EB870000EB47112E48059A10F8113048
:101E8000127893424CD100EB4100019041780598C3
:101E90004078814244D1049808EB0502431940463A
:101EA000521E5B1E0499FFF7A7FC002636E001983E
:101EB000002400EB060A12989AF8021000284FF04E
:101EC000010000FA04F001EA000112D021B14046FD
:101ED000069A0499FFF7AFFC009808F10108A8EBF7
:101EE0000000A84214D10498DDF80080401C049042
:101EF00012E009B1069800E0109800F0EAF809F144
:101F00000100C0B2B0FBF5F1814605FB119070B144
:101F1000641CE4B2082CCED3761CF6B25E45C6D360
:101F200002987F1C8742A3D307B0BDE8F08F4FF023
:101F30000009F1E7EEA400082DE9FF4F83B08046C9
:101F4000119D00904FF00009680700D0012000EBC0
:101F5000D50000FB05FB0520002702902F48059ABD
:101F600007EB871110F81130127893424CD100EB37
:101F700041000190417805984078814244D104980D
:101F800008EB050243194046521E5B1E0499FFF7F9
:101F900033FC002636E00198002400EB060A129874
:101FA0009AF8021000284FF0010000FA04F001EA4C
:101FB000000112D021B14046069A0499FFF73BFC7C
:101FC000009808F10108A8EB0000A84214D1049879
:101FD000DDF80080401C049012E009B1069800E092
:101FE000109800F076F809F10100C0B2B0FBF5F1ED
:101FF000814605FB119070B1641CE4B2082CCED36D
:10200000761CF6B25E45C6D302987F1C8742A5D3E4
:1020100007B0BDE8F08F4FF00009F1E738A50008E0
:102020002DE9FF4F83B00026DDE911B81D46824639
:102030004FEA58073446B1462AE0281B401EC1B279
:102040000A2000F02DFD0599B1FBF0F00A21B0FB4C
:10205000F1F201FB120026B9691E8C4201DA50B17F
:1020600001263030C2B2CDF800B004FB07A0CDE9A4
:102070000189109B07E0CDF800B0CDE9018904FB90
:1020800007A0109B20220499FFF72CFD641CE4B2EA
:10209000AC42D2D307B0BDE8F08F2DE9FE4F994690
:1020A000DDE90D6714468A460546DDF830800BE011
:1020B000CDF800804B4651462846CDE90167FFF731
:1020C00011FD05EB5605641C2278002AF0D1BDE80D
:1020D000FE8F10B50446C0F3072000F019F8E0B2F7
:1020E000BDE8104000F014B870B5084C0546002259
:1020F00004212046FEF78DFA284600F009F8204614
:10210000BDE8704001220421FEF783BA00080140B7
:1021100070B5144E0546002202213046FEF779FACA
:102120000024002220213046FEF773FA280601D54C
:10213000012200E0002210213046FEF76AFA012257
:1021400020213046FEF765FA6806641C050EE4B2ED
:10215000082CE6D33046BDE8704001220221FEF78C
:1021600058BA0000000801402DE9F04385B0002571
:1021700037480095019502950395816941F010015A
:102180008161816901F010010491816941F00401CC
:102190008161816901F004010491816941F00801C4
:1021A00081618069012200F008002A4F54030490E5
:1021B00021463846FEF72DFADFF89C800122FE21E9
:1021C0004046FEF726FADFF89490012240F60141DE
:1021D0004846FEF71EFA002204214846FEF719FA87
:1021E000009401240226CDE902466946384601944E
:1021F000FEF712F9FE208DE8710069464046FEF7B1
:102200000BF905208DE8710069464846FEF704F990
:1022100047F20200CDE90005694602944846FEF700
:10222000FBF8A002CDE90004CDE902466946484624
:10223000FEF7F2F8E002009011200394CDE90105C9
:1022400069464846FEF7E8F805B0BDE8F0830000AF
:10225000001002400010014000080140000C014045
:1022600010B586B00024174800940194029403949A
:1022700004941349059401603F21C0E9011442F21E
:102280000F71C0E903148461FEF732FD08B172B624
:10229000FEE74FF48050009069460A48FEF7A0FD23
:1022A00008B172B6FEE7049404A906480594FEF747
:1022B000EBFC002801D072B6FEE706B010BD0000AE
:1022C00000080040E81B0020FEE700002DE9FC416B
:1022D00010A10446D1E90001CDE90001214668467C
:1022E000FEF720F880466D462146E81CFEF71AF8F6
:1022F00007462146A81CFEF715F806462146681C2D
:10230000FEF710F884F800806770A670E070BDE8F2
:10231000FC810000020301010203010110B5044623
:10232000FFF7D4FF201DFFF7D1FF04F10800FFF7EE
:10233000CDFF04F10C00BDE81040FFF7C7BF10B59A
:10234000012200230A4200D043405206120E040626
:1023500001D51B2400E0002484EA4000C0B2002A1A
:10236000F0D1184610BDFEE77047704741784279BA
:102370004270427A4271427B427241738178827A22
:10238000827081728179827B82718173C17BC27A12
:10239000C273C279C272C278C271C1707047000044
:1023A00010B5054A0378491ED46911F0FF01E35CBA
:1023B00000F8013BF6D110BD00000020FEF734B953
:1023C00030B58FB028216846FDF7C7FE14210AA852
:1023D000FDF7C3FE02250120049000951020059012
:1023E00000244FF46010CDE9084007956846FEF7D9
:1023F000A5FA08B172B6FEE70F20CDE90A054FF441
:102400008060CDE90C4002210AA80E94FEF7A4F9E1
:10241000002801D072B6FEE70FB030BD7047000053
:102420000148FEF749BD0000E81B0020F0B5026836
:10243000164B174C174D4FF08047984205D0B842C5
:1024400003D0A04201D0A84203D122F070064A680E
:102450003243984205D0B84203D0A04201D0A842EE
:1024600003D122F44074CA6822434C6922F08002EE
:10247000224302608A68C2620A688262984201D17D
:102480000969016301214161F0BD0000002C014098
:10249000000400400008004010B5846842EA0322AE
:1024A00024F47F440A432243826010BD826822F0F4
:1024B00070020A4342F007018160704710B5036A59
:1024C000046A24F001040462846924F0F00444EAFC
:1024D000021423F00A020A438461026210BD10B59F
:1024E000036A23F0100303628369046A23F47043D0
:1024F00043EA023224F0A00343EA0111826101623F
:1025000010BD10B5406A0021C185C184FEF7B5FD3C
:1025100010BD0168CA6822F49072CA6001684A69F5
:1025200022F001024A61202180F83A10704710B56C
:1025300090F83A10222901D0022010BD82684FF491
:1025400080539A4201D1016921B1816A9A421BD01C
:102550004AB10AE00268816A5268C2F308020A803E
:10256000816A891C08E0026972B10268526802F04F
:102570007F020A70816A491C8162C18D491E09046B
:10258000090CC18503D016E002685268F1E70168C2
:10259000CA6822F02002CA600168CA6822F4807208
:1025A000CA6001684A6922F001024A61202180F86C
:1025B0003A10FEF7E9FE002010BD000070B5044699
:1025C00000680169E26821F4405111430161216909
:1025D000A0680843616908432168CA6841F20C6336
:1025E0009A430243CA6020684169A26921F440719C
:1025F000114341611E492068884202D1FEF758F913
:1026000001E0FEF745F900EBC00101EB0012606844
:1026100064218000B2FBF0F3B3FBF1F36FF0180616
:102620007343B2FBF0F5B2FBF0F605EB8305322302
:1026300003EB0515B5FBF1F5B6FBF1F605F0F0057A
:1026400005EB0615B2FBF0F6B2FBF0F0B0FBF1F0D3
:102650006FF01802504306EB800003EB0010B0FB54
:10266000F1F0216800F00F002844886070BD000080
:10267000003801402DE9F041984617460E460446C1
:10268000069D1DE0681C1BD02DB1FDF7C7FFA0EB18
:102690000800A84214D92068C16821F4D071C16033
:1026A0002068416921F001014161202084F839004E
:1026B00084F83A00002084F838000320BDE8F08157
:1026C0002068006836EA000004D00020B842D9D063
:1026D0000020F3E70120F9E7FEB53848FEF7CEFC0D
:1026E000364E00258DF8045030680068C0438006DF
:1026F0005BD44FF6FF73012201A93046FEF7E6FDD9
:10270000304C2F499DF8042020880A5441F6583255
:10271000401CB0FBF2F302FB13022280062A44D3D2
:10272000881810F8013CA52B02D0FF2B11D03CE0FB
:1027300010F8021C5A2938D110F8061C5A2934D135
:1027400010F8051CA52930D110F8030CA5282BD0B2
:102750002BE010F8063CFF2B27D110F8073CA52BE7
:1027600023D110F8083C5A2B1FD10B78522B1CD1C7
:102770004B78492B19D18B78462B16D1C97846292D
:1027800013D110F8051C03290ED010F8021C59B9FA
:10279000012700F8027C0A490B48FDF7C5FC0B48ED
:1027A0000B49077020880880258030680168C9437C
:1027B000C90602D4016840680090FEBD301C0020AC
:1027C000701F0020480000208E000020080000201C
:1027D00010000020FEE710B5037811F8014B521EDF
:1027E000634000F8013B12F0FF02F5D110BD09076C
:1027F000090E002804DB00F1E02080F80014704787
:1028000000F00F0000F1E02080F8141D704702E096
:1028100008C8121F08C1002AFAD17047704700206B
:1028200001E001C1121F002AFBD1704770B50D4EA7
:102830000D4C06F580753046C4E905652946FDF75F
:10284000B4FC05F58070E061FDF7C6FC30466662B9
:10285000FEF736FF25622946E069BDE87040FDF7C6
:10286000DDBC0000701C0020000000203FB50D46BC
:102870000446014610226846FDF70BFD0748416AF1
:102880002046FEF7DEFD102229462046FFF7A3FF73
:10289000102269462846FDF7FCFC3FBD00000020E1
:1028A00030B50A4C0A4D04F500712046C5E90541D2
:1028B000FDF77BFC04F58070E861FDF78DFC204698
:1028C0006C62BDE83040FEF7FBBE0000701C0020CB
:1028D0000000002030B50D4604461022FFF77BFFB4
:1028E0000548416A2046FDF7AAFC21462846BDE876
:1028F00030401022FDF7CDBC0000002010B504468A
:10290000FDF7C0FF0349B0FBF1F16143491EFDD261
:1029100010BD000000093D0070B50A4D00224021A5
:102920002846FDF776FE0024EE14002000F0F8F8AB
:10293000641CB442F9D32846BDE8704001228021CE
:10294000FDF767BE0008014030B52C495222202413
:102950000A7049224A7046228A70CA7000F1260223
:102960000A71130A4B71120C8A710022CA71572323
:102970000B7241234B7256238B724523CB72662315
:102980000B736D234B7374238B73CC7312240C74F1
:102990004A748A74CA7411240C754A7501248C75A2
:1029A000CA750A7609254D768A76CA760A77FF2592
:1029B0004D778A77CA7781F8202081F82140042456
:1029C00081F8224081F82320022481F8244081F8F4
:1029D0002520642481F82640612481F8274081F86D
:1029E000283081F8294081F82A00000A81F82B005C
:1029F00081F82C2081F82D2030BD00005C000020E3
:102A0000FDF71AFEFFF7DCFCFFF7AEFBFFF728FC33
:102A1000214C20480C2120604FF4E1306060002000
:102A2000A060E060C4E90401A061E0612046FEF717
:102A3000D3FB08B172B6FEE7FEF722FF00F0CAF939
:102A4000164D002280212846FDF7E3FD002240219B
:102A50002846FDF7DEFD012280212846FDF7D9FD3D
:102A60000D484838FEF790F92068C16841F0200110
:102A7000C1602068C16841F01001C160C820FDF745
:102A8000B9FC00BFFDF718FC00F09EF800F032FA28
:102A9000F8E7000000380140301C00200008014029
:102AA0000246012000E05043491EC9B2FBD27047E4
:102AB00070B5074D06464FF4006421462846FDF7E1
:102AC0009BFD0028F9D03046BDE8704000F028B8E2
:102AD000000C01402DE9F041104E01220421304646
:102AE000FDF797FD002437156806050E00223946CC
:102AF0003046FDF78EFD02213046FDF77DFD08B121
:102B000045F00105012239463046FDF782FD641C7F
:102B1000E4B2082CE8D32846BDE8F081000C01405F
:102B20002DE9F04180250024DFF840800646EF00C3
:102B3000002239464046FDF76CFD354201D00122A6
:102B400000E0002204214046FDF763FD01223946E2
:102B50004046FDF75EFD641C6D08E4B2082CE7D327
:102B6000BDE8F0410A20FFF7C9BE0000000C01409B
:102B70002DE9F041124D16460F4680464FF4006491
:102B800021462846FDF738FD0028F9D00D4C0022DB
:102B900080212046FDF73DFD0220FFF7C1FF4046A2
:102BA000FFF7BEFF3846FFF7BBFF3046FFF7B8FF21
:102BB0002046BDE8F04101228021FDF72ABD00003A
:102BC000000C0140000801402DE9F04F4FF4806AED
:102BD000ADF6040D0024554651466846FDF7BDFA92
:102BE00029460DF58060FDF7B8FA6B4DDFF8AC9122
:102BF0000027A87A4FF4005B012824D15946684881
:102C0000FDF7FFFCAF7200F0E5F8002280214E4690
:102C10004846FDF7FEFC0120FDF7ECFB00224021B9
:102C20003046FDF7F6FC012280213046FDF7F1FC2D
:102C30005C4E43F69828305DFFF73AFF641C44452C
:102C4000F9D3FFF769FEE879574C01282ED1594690
:102C50005348FDF7D6FCEF7100F0BCF8002280214C
:102C60004E464846FDF7D5FC288AFFF76DFE002248
:102C700040213046FDF7CDFC012280213046FDF792
:102C8000C8FC0026A4F1320818F80600FFF710FF70
:102C9000761C2E2EF8D3002603E0A05DFFF708FF78
:102CA000761C288A8642F8D3FFF736FE287AA84693
:102CB000012852D104206E46215C3218401C02F8D3
:102CC000041C1428F8D3344838A12830FDF750FAF2
:102CD00051460DF58060FDF740FAFFF7A7FD0DF5B1
:102CE00080616846FFF7C2FD59462D48FDF789FC13
:102CF00088F8087000F06EF8002280214D464846A2
:102D0000FDF787FC0120FDF775FB002240212846D6
:102D1000FDF77FFC012280212846FDF77AFC002583
:102D2000605DFFF7C5FE6D1C042DF9D30025705DB5
:102D3000FFF7BEFE6D1C042DF9D31425464603E0B3
:102D4000605DFFF7B5FE6D1C308A08388542F7D309
:102D5000FFF7E2FD4FF4C870B08198F800004646D6
:102D6000012815D13770002540F6B8374FF6FF78A7
:102D70000BE06119434601221548FEF707FB39466F
:102D80000220401C8842FCD36D1C308A8542F0D35F
:102D90000DF6040DBDE8F08F000000200008014092
:102DA00000100140543200088E00002068656C6CF1
:102DB0006F776F72643031323334353637383930AB
:102DC00031333234363537383968612E000000002F
:102DD000301C002070B5324C002201212046FDF746
:102DE00018FC6420FDF706FB2E4D012240212846E9
:102DF000FDF70FFC012280212846FDF70AFC012285
:102E000011462046FDF705FC0220FDF7F3FA0422E7
:102E100008210020FFF7ACFE0220FDF7EBFAE514D5
:102E200029462046FDF7E8FB0028F9D0002298212A
:102E30000320FFF79DFE0220FDF7DCFA8122BB2173
:102E40000520FFF795FE0220FDF7D4FA5522002158
:102E50000220FFF78DFE0220FDF7CCFA0122114679
:102E60000B20FFF785FE0A20FDF7C4FA0020FFF7CC
:102E700057FE0020FFF754FE0020FFF751FE002010
:102E8000FFF74EFE40F20114012211460B20FFF71E
:102E90006FFE0B2000F008F8A042F5D170BD0000D5
:102EA000000C01400008014070B5114D044601229C
:102EB00040212846FDF7ADFB002280212846FDF782
:102EC000A8FB0320FFF72CFE0120FFF717FD20468B
:102ED000FFF726FEFFF7FEFD0402FFF7FBFD0443AC
:102EE000012280212846FDF794FB204670BD00009A
:102EF000000801402DE9F04FCFB0642103A8FDF791
:102F00002CF9642135A8FDF728F9DFF8C492DFF821
:102F1000C4A2102699F8040000254FF6FF78012876
:102F200076D189F80450CDE900564F464FF47843E6
:102F3000A9A2142130200295FFF7AFF8FFF74AFF4E
:102F4000002211460220FFF713FE222200210C204E
:102F5000FFF70EFE002210210D20FFF709FE0022D0
:102F600011460E20FFF704FE062200210F20FFF776
:102F7000FFFD002220210320FFF7FAFD0422182183
:102F80000020FFF7F5FD012211460B20FFF7F0FDB1
:102F90000520FDF72FFA0920FFF786FF000AFAD176
:102FA0000520FDF727FA002240215046FDF731FBAE
:102FB0000920FFF779FF84B2802CF9D304E00820C0
:102FC000FFF772FF641EA4B2002CF8D13D82854F3A
:102FD0005A20A52138707970B870F97038717971FC
:102FE0003919434601228048FEF7D0F9641CA4B287
:102FF000062CF5D36420FDF7FDF90024391943466A
:1030000001227948FEF7C2F9641CA4B2062CF5D35C
:10301000B9F80E0099F80510DFF8C8B14C46014325
:103020000BF1320B38D00121E172CDE900564FF49B
:103030007843029508B16DA200E070A214213020FF
:10304000FFF72BF8002240215046FDF7E2FA092055
:10305000FFF72AFF80B280281BD300255F46AD1CF6
:10306000ADB20820FFF720FF218A020A7A54491CDA
:1030700089B27854491C2182802DF0D34FF47841D5
:10308000CDE9001802960423228A3C210020FEF795
:10309000C7FF4FB0BDE8F08FE07A012802D1E5729A
:1030A000FFF798FE607A0128F3D165721021CDE90F
:1030B0000051A946A2464FF4784354A2142130206F
:1030C0000295FEF7EAFF208AFFF73EFC404853A135
:1030D0002830FDF74DF864211CA8FDF73EF8642167
:1030E00003A8FDF73AF83F4C042003AF215C3A18DF
:1030F000401C80B202F8041C0828F7D3FFF7D0FB6D
:103100001CA903A8FFF7E6FB00264546A1192B469C
:1031100001223548FEF73AF9761CB6B2042EF5D3F3
:103120000426B9192B4601222F48091FFEF72EF954
:10313000761CB6B2142EF4D30826A1192F462B46BE
:1031400001222948FEF722F9761CB6B22E2EF4D3BE
:10315000002540F6B83856460FE000BF0BEB0501DE
:103160003B4601222048FEF711F900204146401C51
:1031700080B28842FBD36D1CADB2308A8542EDD35C
:103180005A202070A5206070FF20A0700321E170FC
:1031900084F80490012184F80590A1714E46E071F5
:1031A000002561193B4601220F48FEF7EFF86D1C20
:1031B000ADB2082DF5D31020CDE900604FF478436F
:1031C0001FA2142130200296FEF767FF61E700007E
:1031D000000000200008014052656320496E6974B8
:1031E0002E0000005C000020301C00205265636F40
:1031F0007264696E672E2E2E00000000636865639E
:103200006B2E2E2E202020200000000053656E64BF
:1032100020446174612E2E2E0000000068656C6CE5
:103220006F776F7264303132333435363738393036
:1032300031333234363537383968612E00000000BA
:1032400020202020202020202020202020000000DE
:1032500001010101FFE318C0000C91A918018110C0
:1032600000FFEFFD0C4BFC6D0FFFEE46727FFFEE93
:103270008C7337FFFF9F628E20A04FFF338703E0E0
:103280003FFFE8026947FFFE1F32FCCA1FFFFFF342
:1032900046430695FF285A00BFF02B8BFFE318C06A
:1032A000080E2A3ED8018A500063C153FCB1527700
:1032B000FFEC79E79A70CFFDBF84902324546AFF16
:1032C000FFF938FEEE9FFFFFFE343CF6333187EF07
:1032D000FFFF422BFFFFE4D1A8CAB9814036062880
:1032E000ED240618FFE318C00A0CD146E801CD28EA
:1032F00000D0C5048D924924916525EB7FFEAFAEC9
:10330000AD2A488C318C6FFFF9DE1211087FEA403C
:1033100013FEBA8FFFFFFFFFFF5AAAAC6805646077
:1033200056454A83AD17FDFD42A7FF4FFFE318C086
:103330001110A1E2E000689070DBE4232A231CFF57
:10334000FFFFD6AE2815182F038F84A7DFFFFF8E4F
:103350002554A51F523129C8B814081CA691509DA8
:103360005BBFFFFFFDDF57FEDA108AD4A03A1B04D3
:103370000EC63D97FFE318C0090D19EADC00384E70
:1033800070F7F494FFFFFF297018DFFFFFCD9E6BED
:103390000BC28B7FFFD66F4B9C228E054493BFFEE2
:1033A000AFFFFFFFFFFF1625FFD132CD358BA18484
:1033B00038CDB7171707FE3FD1C80000FFE318C08C
:1033C0000F0BE97AD80058844C209FFFFD3CA86081
:1033D000229FFFFFF2B18D1CE001CFFFD2DFFFF78C
:1033E00056FFFFFFFFFFFFFFEB4ADA54046E902AFF
:1033F0008EA5FBAFFA788FD4E160F81487A4F5CCE2
:10340000B1937BC7FFE318C01A13297ECC005A0C76
:103410004CB217FDC9D33524DB25AD9F7E6C942CAF
:103420000CE9D0493D3DDF1FFD6DF4712D57AD64B2
:103430000E2CF75ABFFDB78B9FD7FFB3FFFFFFD707
:103440004BBFFF5DFFFC4FFF00272600FFE318C0C6
:10345000080DB946E59449444CD3ECB1FC4B7DC70B
:10346000FFE47E8E6EABABB341FFFF4CE713FFF57D
:10347000AA028138AFF1CEB4558E2BAFB758893F31
:10348000F927FFFFDCA7FE2A0A5FFCF63A98429A6A
:103490005F25ECADFFE318C00C0C594AC40010CCFA
:1034A0004CADE98A63964CA46C246A386CD146EC26
:1034B0005C6D3BEB7F331700685949A3675FB66FBC
:1034C0005848F0F73D42D55537AE638E9A69561489
:1034D000011120BAFCE4ABDAC6A3ADBDFFE318C00E
:1034E000150CE1B6B4014718003A6798ABEB7D4D77
:1034F000AF0EED2BC2F406DB694897CE9FCCCA6EA7
:10350000C8E084BB6DDDF965FFEF479E7931B84AAD
:103510001332F8DC89720383638CFC5FCED1CADF7F
:10352000F2348D39FFE318C01C140232E8018728F9
:1035300000C0498A5319BFFF669095476CB54FFF8D
:1035400042105CEE466229D9554A5121EF027F773D
:10355000E0AD2185A05FFFF719CCA6F58400AED9B8
:10356000FFFF661214E8EDFB8981D1CEFFE318C09E
:10357000070C80E6E401C71000E8FDD10E655AF59E
:10358000F6FFB930445E1C5569BFF09835FF76A749
:103590007FD6C720F7FCB0BAADABFF576B3CD7D195
:1035A000B7F7DDE9E427FC50F37EBA0069FD5BFD67
:1035B0001590E354FFE318C0100BC0FEE000094E65
:1035C0004845223A814187FA50E529FC2DFFEE213A
:1035D000FFFFE7BA90BA888782A7FFFEFFFFBD080A
:1035E00000303FC3C03FFFFFFE220EBFFFFFFA8245
:1035F000733FFD3FFF9422AB7FFD7FEFFFE318C0D9
:103600001C0D1AD6E9954510008B52B7FFFFFFFF3E
:10361000FFFFE461D4DFFF83C77FFDE0F04FFFE9E8
:10362000F32AFFFFEBD3426629C90260C126623C40
:103630008DB677DBEDB29F150B3F1F2DF6664CCF95
:10364000139EFFCAFFE318C02215BBC6C8018D3800
:10365000009C5F5DA889989D5FFDF7F3F3CFFB7336
:10366000A6176ECF1300E09C9B0E39BD742AE8BFED
:10367000FDFF9C22A1EDEAA29FD74FD7FFFF933C0D
:10368000E356E1D6DDD7FFFFE9E73284FFE318C058
:10369000060BB142D801CA180081023E674F64B7D9
:1036A000FEAC9A9EAFF27FE5495632A51757FF8AC6
:1036B000FFF5D4D43FFF83F1408BFD10F51FFD7E55
:1036C0004059FBC6405AC3E5FF9EBFDD7951D9661C
:1036D000D17FD5DAFFE318C0120D3942D000028441
:1036E0004CCE506DFFF77D1A99BA77FF88940D2C58
:1036F0003484F78C1302AE3ADFAEA266051BBB59C9
:10370000E45A702ECF1980B80D8F80804101744C1F
:10371000B68270BCEFD336AC31DC5806FFE318C07C
:103720001810286ECC00525E04EB167E2C1E0D8DF8
:103730000C1AB92B4A7A4A8C2DFFE655FFFFFF6F12
:10374000FDB8494046A35F5970C02563FF40B9F8F2
:10375000889DF9A0BB9D8855DEBEF49695DD33B3F8
:10376000CA7B4A02FFE318C0120FD0E2D000788C67
:1037700048976BED972C979E4AA888A1651330FB5C
:103780003036B101F8830181017060C204E41ABFD0
:10379000E72EFFFFD7FAB5753FFFF92FEAFAD59E5E
:1037A00060CC7303E84412719219C3EBFFE318C0B5
:1037B0000D10596AE40060444C575E2B0A71049A5C
:1037C000332A2FD72F4B3A9F52BD75DEADE67128B5
:1037D0001A5521C4382122DC97EA83CE864E7EF525
:1037E000DC8CCA9BB29F5FFFFFFFFE8FFD2AA03ECD
:1037F00003B00A30FFE318C0060DC1BAE000688EBE
:1038000070DC70C8C6D4CBDF5FD40369ADF37FFB37
:10381000A2B7F37FFEC0BC705A486C71AC73FFFD59
:103820007141A71E496CFFA197FFD9FFFFFFFFFF62
:10383000FFEAE04E1406A2C2C90FF8AEFFE318C0BB
:103840000A0D39C2DC00408470FF7DA68CA057228F
:103850002FFB7FA5428315F5FFFF983890A21FD755
:10386000FFFAA010B30E24CDD2EFFF8BFFFFFFFFB6
:10387000FFFFFFD17347488B86E1704CD73131147D
:103880003C6E4CA9FFE318C0100E41E6CC0147285E
:10389000007205C891A88B8030B5744D7D3FCF4F25
:1038A000851BFFFF56CDE7467FFFAFFF9862FFFD08
:1038B00046FFDDF739BFFE5BFFE970B0CE5B2E9FA0
:1038C0003C1E1F35E9378FA2BF57FD5CFFE318C0D0
:1038D000120FD932DC0186380033BE7AAA19AE3C09
:1038E000350C22D3FDBF5551C65FEA7ED2643FFB43
:1038F000B58382A010B087FF53B5F6A55FFFFD7AB0
:1039000042AC9CFFFFFD2AFEEDF8F8B7D498E9B56C
:103910007D06CBF8FFE318C00D0C18C6DC01C7000C
:1039200000EB9EE28221C2E1A9BBFDA185875DADCE
:103930009D1FFF02B046E3AF46D0405445FECFFF87
:10394000FFFFFF4D15EB7001B77F703FF7120E368A
:10395000DD1BF062457E9285010C0873FFE318C001
:10396000170BB8BED00012042835FE1AA8DFFEAF30
:10397000FF33B5B50353AB091BFECFFFFFFFE7BF16
:103980002CFD6CB0FC8961D941ECA388BCA80991DD
:10399000C472A20A5E866BB3642E7CDEF9D4FE7913
:1039A00040D4A061FFE318C0230DB8A2B8014C18A1
:1039B0000053480F53FDACD1FB105BF4F77FFFA71A
:1039C000FFFE9FD925B6C2A86E030FF1468CB1FF4A
:1039D000BDAAA9B136FD25F211E0C23468FE5FC070
:1039E00082900C5DFFFFD9CEC420BBFFFFE318C05F
:1039F00027149242D401892800FFF9C8421CEE2EF8
:103A0000A7FFFFFF640E00607170E012A829FFF9A4
:103A1000A4E51C18FFFFE18973E27020601FB767FF
:103A2000FFF403E515E9755CD53582636A87527D3D
:103A30002888CBFAFFE318C00F0CF912EC01C7106D
:103A400000A9F46530F1C14942ED5BA6FEB2080859
:103A50009A77672EEFFB1EC82A93AB511FEABFFF70
:103A6000ADD47D3FFF24E54B17342AABA1B4735C82
:103A7000B533ADE60DFDEC651208B9F9FFE318C0EA
:103A8000160FD92ED80038964CC8AAE279FD8F417E
:103A90005990C86F52CBF341D64F37061AF5B16033
:103AA000B0E27C8249165937E877FFF5FFDBFFA9C2
:103AB000EDFD35AC2BB0231DFABB7B9EAA43FFFF67
:103AC000D5F1CC2CFFE318C0110D21A6D40010961F
:103AD000718FFABE9484144C79361F0760201280CF
:103AE000F8F133FD7FCFF1114D6230F44A918EF938
:103AF0007BF6ECE5C5FC855C6057B3945FE7FFF5AA
:103B0000467738C6FFFA921A9C025870FFE318C035
:103B1000170B5172D400088E4D2CC82504C5CDBF9B
:103B2000ACE3D8682C252039FCEBBF513C0D89153E
:103B3000520B840A4BA8D36F575DEDABD727FFBC60
:103B4000CEEB91BFC8FCA52CAA269BD5BED70CED09
:103B5000CBEC8727FFE318C02413BB76D80028845A
:103B6000945D2C556DD99D15732AA64BFA556F336C
:103B700027DBDBFFFE4A2A5B69FB69C8BAFE66D415
:103B80008A416020F6E294EB6A4CE8D46A006E1435
:103B90001E4159AD208E9C5DD2C187EFFFE318C056
:103BA000100C7142D40038844C4F8319F7433F8284
:103BB00017FE9D7B5FBE0DDFFE2DFCECF0954B19D3
:103BC000FFD69FFF25FDFEADFE4BAABE63865C6857
:103BD00069E71BB5DBB896EBCA9CF6B82F2F7B7F45
:103BE0002FE4F890FFE318C0190AA0DAC80079CAD8
:103BF000286BA994045F70B6867FD787FFFA8F770A
:103C00007FB28A4530FF859C1C0540811DE88DD41C
:103C1000D698D26518A0C93D5526543CA57B6CE8C2
:103C2000AFAD4A5D4CE91B36A14ED008FFE318C08A
:103C3000290E68DAB80150000015C0AAFD9FE3F014
:103C40005796F809FFFD5BFFFF4560813664134B13
:103C500062C5E1EC018E7E6873D5249F2AFF87BE82
:103C6000CF5363FEFA191055BFC8467D5F5AB07432
:103C700043FF4177FFE318C02A160A42E4018B286C
:103C8000009F234542482430E4657FFF264B3918C6
:103C9000F87CE46121EE1E21028DFDFD18A30CB518
:103CA000F25FFFFD4A1748A3DDD1FFFCB2A88B2AC3
:103CB000A8E072015D342F8F52E979D1FFE318C07B
:103CC0000C0CB1B6E801CD2800451FFF3447FFB307
:103CD000FFFA09FEFFFE931C543E26BFFFFD56531C
:103CE0008581D418FD7519001577FF47FFFFFE3257
:103CF000FECD86320022F1C13CE479DFDFE291D8CB
:103D0000FFE6FFF4FFE318C0140E81E6E8CA388A24
:103D1000706E953FFFFD25318CEAC65182E9FFFCAC
:103D2000AACC634A463908003BE1D8359651728ED9
:103D3000FFFFFFF7B7FFEAA84454445441D11E8265
:103D4000FFBFCBFFFFFFFA461FFA7D5BFFE318C002
:103D5000150C7A5AE000288E70FFA284C3ACDFFFF6
:103D6000FFCF150E8E39C877FFFFF306879F2FFF11
:103D7000FFFFABFFFB93CD0E663928F6625FFE4670
:103D80000437FFEBF994DC74324BD6F26CF9606CBB
:103D90003DFFE582FFE318C01E0D00FADC00388EFF
:103DA00048AEFFF128682B4FFE5CF070D7FF02048D
:103DB0007FFE6CA3FFFD0BAA00F845E8FFEAFE8A30
:103DC0000881C627ACC4F967FE6A76BB8E7E9FFE6B
:103DD00041958EA018410EEB3FFFFFFFFFE318C097
:103DE000250F3146DC0028864CFE1E69713BC982D6
:103DF0006C3BFF0F86C541959EE5E8BB68D621DF89
:103E0000A14630ACC6733FF97E831BABCC9FECAFB1
:103E10003A0C38616EE1E4E4FF5A98A18F04C2FFC6
:103E2000FD3FFE8FFFE318C0230DE93EDC00104488
:103E30004CFF486239485F4272AD752D455570A000
:103E4000EFFEB17FFF42FFF7FFFEA50CDFFF5294AC
:103E5000B52DBD56340A7EF2A22784CF75FFFFFF31
:103E6000FFFFD26ED0910207FE914222FFE318C0FD
:103E7000260C00FED801421800F687146487FF4B19
:103E8000E9FFEA6016FB0006B24EE95EEBD49BBA8E
:103E900003E583A04E5814B1B1800980B49454173F
:103EA00061B9E5EBE421226077299479911C8C2A91
:103EB00043ECEC53FFE318C031193B12BCCB8D2807
:103EC00000B9179888733761A715276BDCC6F94FBF
:103ED0008A76BEE8627FBACDFFABFCE595ADDD1812
:103EE000C9F4FFFF4200C061212B851F8347518A1F
:103EF000FFF579D7D7FE7F9EF9EA1006FFE318C0D9
:103F0000070ED996F4018810000AB59E3ABA7BE4F0
:103F1000E462297FCA465FE1C99FD9B4B4A4B73728
:103F2000FEC46EDBC66E5C3E0800CFD00A8A3D4AF6
:103F30002073D3FFFFFFFEE8ADBFFFFFFD4AEA7429
:103F4000FB280A1DFFE318C0060C6962E401C528BE
:103F500000D91FF1856D3FDFFFA05830B173F6DB4C
:103F6000FEE841A0A1C1A261F0F87C5C41FE2C609A
:103F7000D879DFFFFFFFFFFFFB36FFFF453E615FA4
:103F8000FFFC83C7FFFFF9CA52AA8B0DFFE318C0DD
:103F90000F0BC17EDC00084A4C038E7FA48FE664C1
:103FA00040F0B2950480C018B0A080A7FD6ECCBBD5
:103FB000FFFFFFFFFFFFFFB79303F030B3C03FFFEA
:103FC000FE6742105DC380C9FFFFFF904D8C6FAF4D
:103FD00096637FF0FFE318C01B0D11E6E9940944D6
:103FE00070A10865BFFFFFD1620E685DDFFC87FF2F
:103FF000FFFFFFFE67F5BBF24545152AF7429448DF
:1040000008221F4213211B5911E17A13BAF6860CBC
:104010005E6E7F6C082DF07F460CA9B7FFE318C0D9
:10402000210E8926C40001464CF43671AD24226B62
:10403000ECFFB7E63FA10A47FFD980D4A9C9439353
:10404000FFCBAAFFFFD0EDCD9CC2E01B081CBDB684
:10405000BEA9365731FFF6E3C790780E167DD3A37D
:10406000FFF86B69FFE318C02114AAB6CC0052C454
:1040700094A8A304B89DCD7B3FFFFD7F7B2F237FBA
:10408000F67FDE7DAE854144FFE8A846CAE46A9C1F
:10409000208007E4FD07BFA6ABE72C414B30B9F405
:1040A00024DCC5FE6C608FFFD8394187FFE318C060
:1040B000090DD142D800088A4C332E9CADFEB4388D
:1040C0009048C5298C46FFF3AD049E86FFE5BFFDF1
:1040D000745F44C5F78E0B150596180E1C1CE0C5C1
:1040E0009FD2FFFFFB73FAD599E60700F151A9684B
:1040F000FA33DB3DFFE318C00C0EC8FAD4006204AB
:10410000485AE5A2E255AEA8F6050112FDFFFFFAF6
:10411000A19CC6145FFFB7FFFB3FFED24FFEA46217
:10412000278500BFEEAE68B1FBFFED3B056EFFF5E6
:104130002AC51704FC62B29B050F0501FFE318C0F6
:104140000B0EB076D0007A4604004092D1A3468C84
:104150000111001082A89121051D7CB89D670A02FB
:1041600015001DF6F862C1421FFFE715A9DDDFFF4C
:10417000FD7FF2C1DAFC4CF852FF6779165A332002
:104180008E5728CDFFE318C00B0D98A6E000798468
:10419000246120A89AAF2FF664A5591EECFB3104C8
:1041A0004E34E502E2DBEFF99705ECFFFFFE5EEE31
:1041B000557DE28277F47FFFFFFE938295A4AFC026
:1041C0004124A78362BF10F18CC4C537FFE318C038
:1041D0000F0E0146D40079444CE57EEC109752A5B1
:1041E0003848D33DDFA3831D92FEBFFFA2888260C3
:1041F0009813FE3DC797A3F539B2BB7EB0D7FF57E2
:10420000FFEB9390445A7CB4E922FBF5319588BECC
:10421000CC67315DFFE318C0120D296AD0006144FC
:104220004C4C1212131374DE4EDDD8DFFEE76FFD27
:104230003A68FEB82081AFFFACDD9DDF72431DFF01
:1042400077FFFF4AAA3C016AD5919B83739D19941D
:104250000F7110B1027C98E8425D7EBFFFE318C089
:10426000180CD8F2C80049C448533AF969D1C01FA4
:10427000FEAEA0A889FFB7D068F7FFDABFD34F61C1
:10428000925FFA3D559252721A466421D64E196ACF
:104290002594B0586491736D53F20510421EFFAA25
:1042A000CCA9A230FFE318C01F127126D0004A4AE1
:1042B0004C987DD191BFF3E8C260381D840719F294
:1042C00027E1107D6FAD86B205CFE977FAADEDD964
:1042D0005FFE7FFFFDBBFF47FD5FDC41CE0A173568
:1042E0008545B2AD42A475C38EBBD101FFE318C0B2
:1042F000100EB922D800394E4CCFF893C81C62E694
:10430000B4DED4B7CA1109CB094192C7120682950F
:104310006A44B1E3C7BD5CF7D1ABFFDAEDFFFFFF45
:10432000FFFD3750F8038FB2CE1D74B1564D745156
:1043300010428A07FFE318C01009F10AD400414473
:1043400048F54DFFE1808733A2A351DBEB44021413
:10435000B995FFFFFFE8FFFE4A9698929091DA7AAE
:10436000D693FA6C4BE100CC1289D30F6BE9EC6D5C
:10437000FFFFDEEFFFFFFD087520B1A0FFE318C0CF
:10438000230CD912C8014B1000D7DDEFFFD6EFFF89
:10439000FFFFFFFFFFFFFFFDFD15BC4ABB2ACD3429
:1043A0009243E27361480D8483854CFCFF210C54D9
:1043B00096D5FDADBA2939A7FF98631EF31B738EFE
:1043C00034560BFFFFE318C02A16D21EE4018938C9
:1043D00000FE8BF2687229E7A5FFFCC69863133FC5
:1043E0004A911D0680C0D30EFF67CB056F6302CFD5
:1043F000FFFCE142E54D925C58A87755BFFDDBA379
:1044000045C5D5E56D12EEB8A41CB322FFE318C074
:10441000090CD11EE801C728009C74F43BA8E2B740
:10442000FBFAF38E3ADFF2FC68062A220A0348F20E
:104430004405677FF4FFFFFF6EAAFEAFFFFD3A174A
:10444000FFFFFA15FF1C87C0707CD0417CA6AB7EB5
:104450006A69859EFFE318C0100D6932E4CA404ABC
:104460004C4BFC5DF22BF6F9994EBA8A1079C3C019
:104470006051E8DA93100601FA805FAFDFFFFFA317
:10448000FFFFFFFFFF25526A627DF2D72F9DCA4FC3
:10449000F347F945BE9FA9C48518DA2DFFE318C07C
:1044A000150EF18ED000329070677CD1D0180BF1D0
:1044B000A89E2F2C4468F87C0D8585AF92E42412C9
:1044C000DC9C78DD5766D96E73651D879E3BAE56C2
:1044D000F08A749B60E321424622BAE4E8E8070EC2
:1044E000036A73C8FFE318C0140C5142D400494A50
:1044F0004C4227ACE82C564FA9DF68A9C3CA030376
:104500002D1EBB24CC86B43A180A77F2D587EAC5AB
:10451000D8499811C4A21C658B8C3E72B2A5756BEC
:104520006028C7544951E9A128973693FFE318C082
:104530001D123872D0007BC604C8580844F3A51475
:10454000448C2916AD89D4143D931771AADA3ABF69
:10455000CB50719F42F3A137B99ECA1DB4877F7DAE
:10456000C9653EDFD1D5D9587159ABA8F063F5EDD7
:10457000640859E9FFE318C00F0B78A2D000C08A85
:1045800024AAEB1815598DFC6BA9E0980F22C729B6
:10459000AF6BE9FFF515571529ADED453FFCA82A8E
:1045A000DB78DD49216C82D6E0E50625B4D666EBE2
:1045B0009DB3F54B0272C924BE8F3B77FFE318C051
:1045C0001C0E38DAC0007A4A2844DDC243EE43D4D8
:1045D0006DAF9E539BEFAD1E751A029257C45FFFDD
:1045E000D6DFFFF67FD5D5D227C36300989D6C71C7
:1045F0006BBB2CFF378D8B41A6F5E59406D451613A
:10460000D06C2231FFE318C01E0D9072BC014F0028
:10461000000144B8E35A88D421D4BA976859CEDF50
:10462000FFF77FFD6D0193FF4A15D3C84A0BA244E3
:10463000DD85A8D48AA1AC79B992D5997FA5FC4F24
:10464000EB0FE2B8FCF5EEC864D7AD12FFE318C07B
:104650002214EBB2E8018F3800DFECCD3D5CF01A9C
:10466000676375FEE54F4F6734A97EBAFFF93A1DBF
:10467000B6625452BFBA7FFFFE9FFFB6FFFFFFBD79
:104680009B679FFFB7EAA5FFFFFF5AAA1B0172387D
:1046900092993656FFE318C0090CA22AE801CD1002
:1046A00000BF4CD3ECBDBFEFFAFF95B47FFA7F6338
:1046B0002840E248469189FF7F7B42BA23FD53FFA1
:1046C000DE80D08BD5FFFFFFFFF15AC420C1A24D81
:1046D00062A43AFA9BFFFFDBFFFF4126FFE318C00D
:1046E000110C09EEE400388A70FFDFFD1EA61831B8
:1046F00042676FFFFCAC67441835981C74D7FE29DD
:1047000047FFFFFFFFFF53CCD5FB18858520F543FE
:104710009D8C1F096F2BAB5BF9CDFFB7FAFD4826C7
:1047200028110398FFE318C01B0D016EDCCB47284E
:104730000087FFFFD0E518067121699FFD2CB3FFAC
:10474000FFFFFFFFFFFFFFEA3A15841744A74F1F43
:104750003792B3106F5A90CEFF38BCEE6334DA282C
:1047600055ABC4B12D5AB7E8C90E2EEAFFE318C005
:1047700022137176D4018C1000F28533D7FF4E4D91
:1047800073C12F33C4027EB0AB1FFFF13940F9C2B1
:104790005145BBE877B4BE34DFFFFF5FD3385E71AD
:1047A0001FB3FA385DFFBD86CFED52CEA76DDCDEBC
:1047B000F3E4A524FFE318C00F0C9892E001C610A3
:1047C00000122D0ACE93D62A642020FE68A326B5B7
:1047D0009B7132A1B01DF34F097FDFFFFEEFFFFF9A
:1047E000FFFEF67D2AA5EAB0D94BF890676BD3BFE0
:1047F0007C3F150502E69CFD7FFEC3A3FFE318C0C6
:10480000170C8146CC001A044CB7EBAE8A18194835
:10481000FFA060230A416849FFFFFFFF3DFD6EFFD7
:10482000FFFFFFEAFFA23B40302EC3816464791191
:10483000339ABC28722A0A44591D1B47FADF171EF7
:104840009D4FEF7DFFE318C0200D21E6B800520414
:1048500070EC9B9A45FFA277723222FFFFD6FCFFD5
:10486000186ABFFFE1BAFFCF8E03C1F09C6ECA3752
:1048700012C99EE10009140DC8CE2018B7FDC5E588
:10488000E888884655D08923BBB9973FFFE318C015
:1048900026161202CC0038C6702FAE75110013FF19
:1048A000E22279FDA67F53D1102147F8488882C3C0
:1048B00083E0FFC8081D3FFF83FF0C7A13F9707C6B
:1048C000FC4E1F9707CFFC9FFADF89EAF4FCE38BCD
:1048D00082274E8AFFE318C0080CE8EAE800394452
:1048E00048BA4C6746014757BAE665BE84AECC105D
:1048F000002866BF23FD255DFFD934ABDFD8F97CE6
:1049000055ED2BFC838A15FF527FFEDCADEA43FE9A
:10491000A149A9AFBE5314480022DBFFFFE318C032
:104920000F10329EDC00114470D7D058240CA2C165
:10493000C38F6FE9FED2CCE9FFFFFFFDFBFFF56FF0
:10494000FDFD2EE4FAB24CA0283CA99480CB81D482
:1049500073CF50BEFB9BDFED6D4EA5FFFFFFE85010
:1049600004015BFFFFE318C0090C42DED8003944A4
:1049700094FFFD5440381D1ADFEBFFFBA1DE5FFF03
:10498000FFFDD58DFFFFFFB3F5FFFFFA25D01034F3
:104990007FFF7A072BFFA0596BFFFFFF44BA094145
:1049A000912C9BFFFFFFA1C41DEBFFFFFFE318C08D
:1049B000130CD2D6D401471000FCCEEDFFFFFFED63
:1049C0006FFFF57FAD8953A9FFFFFD050A8963439A
:1049D000BFF6D4857FE069932695FEFCCF6A737598
:1049E000232E2A9A914092346361449143F39FCBE2
:1049F0004744FF3AFFE318C01A129AD6DC018D1023
:104A0000007BB14D453B37FF7E8C7A42ADE6672790
:104A1000FFA004BED23276D0D205FFFFD7FE62A23D
:104A2000510233BFFFA289FF1083E69F3578BFF79D
:104A30007D6AFFF43394AB337A860B0BFFE318C027
:104A40000A0BF07EE401C51000470345039950901E
:104A5000D08B50DCD218F39656044AF19E793FFF72
:104A6000FFFECF1A77EA1F67FD9E8E9E974DAEFF21
:104A70000EE100041BBBBBB99FEA6910994E71E3BC
:104A8000B4FFFB37FFE318C0150BF112D80019C4AF
:104A90004CF9566470A25BCA9635FFFFFFFFFEAF6C
:104AA000FAF815FFF50A00035FE5B7A6F45609E02A
:104AB000988B12998CB6B33E5746B5B3ACDBFCD697
:104AC000B5D77B58DBB5F58CBEBCD883FFE318C0E7
:104AD000201130BAC8014F000002F123DCCA036084
:104AE000F86367FCCFFFFFFFFFFEC53A86BD8D1A56
:104AF000C965CAA6A7F05631E313A908E9A2303365
:104B0000F50F316509604E04BFE9DBDE684EB67F04
:104B1000DBDFBB73FFE318C016110192EC018B2899
:104B200000FECDB6E5D4BDD4EBD5888287FCCBFFA3
:104B30008B8E67BDEC12860FA839FEB39868233AB6
:104B4000F04E9F9CFD95B1FFFFFFB3D5FFFFE9A994
:104B5000325C501323E70C8D4A28254AFFE318C026
:104B60000D0C995AE801CD1000BD037FEA5B375761
:104B7000BFEAFD36AFFFF538412606AA41460E9E34
:104B80001175D61C344993B1ECD96311245935A859
:104B900040C1DA3392CB49C77919067EF0C041DFB4
:104BA000CAE8CCFFFFE318C0150C3956DC00688A50
:104BB0004CA1BF5FA0B0E7D0DFFFA88944401152ED
:104BC0008482CCEB7E581A028840557FD497862188
:104BD000ADA356A9347AF658BB0B1261E0E2EB3371
:104BE0006A14FB9D6DA39275D63BAD51FFE318C0CF
:104BF0001F0C9862D0005990001120E21BFF49CE93
:104C000077E5428EFEE8AFFFFFD2EFFD15FEA6FA74
:104C1000E44310913B4D06B8C070821DCE85A37E43
:104C2000AFA829D09FF799FBA8D3BFFABFBF57FF02
:104C3000FFF28D94FFE318C0270BC1CACC0040845B
:104C40007076CF10BBFF3FD1EBFF96A9F1A602C350
:104C500047DEAA2A3ECF844E928F8FE74DC1D920DE
:104C6000E2A7DF6E454A7CE755279F6DCF1FF37F94
:104C7000ED86EE100DF2D25734444477FFE318C0AE
:104C80003317F242D40042C670763FD1FE4BDFFFAD
:104C90003DD7F281E033B1E4E679176261CC003AA6
:104CA000354D65A3C52E7FF7F6FFFA56C5B70C162E
:104CB0006A832022BC55FFA44830CF66EDB8281B7C
:104CC0001CB7220AFFE318C00E0F2152DC00298A0C
:104CD0004C59EB54B7FDFEBD044794507A2AFF5F50
:104CE00057214AAC6F72A3B14628696B3D98FE48C4
:104CF000951FCB0E786C0A827EAFFFFFFECFAA9580
:104D0000F31AA4D0C01A1AEB9F59A1E1FFE318C00F
:104D10000C0C78C6C8003A8A2823CE1F836B004E3D
:104D2000CDE8FD9905E12EA8886868F29FA845376F
:104D3000FFDDEA7FFD4A7912AEFFFDBFFFFFD2CF54
:104D40003FEFF00010806860F08CC8E03203420250
:104D50002F83DE67FFE318C0150D7882C9954810D0
:104D6000003C2E67CB90518065C6BA2E48510D7D10
:104D70003D73DAC48C57C6FA99EB3CEF6FDBFC4C01
:104D8000FA938AA58BA8858AFD054471084A051FF8
:104D90002B49EF52B51104FAD947D14EFFE318C0A1
:104DA0001A1159F6F001881000117BFA3D326DAAF4
:104DB000FFFAD13BFADA94F7463FE6530E063D3C44
:104DC000F2C9553FD9DA6EC4EDFFF760E126EFED89
:104DD000FFFF154D6AF3BBEF1E1A528577B82762A5
:104DE0009752C9FDFFE318C00F0D99BAE401C2281C
:104DF000004824302338094A5EDDDE8380882A514A
:104E0000699915B56BBD99FEEBFFD4ECE51C4D4FD0
:104E1000B3F5D9FFFFFF6FFD35FF0A07BB95750698
:104E2000FA4AAC1029DFAA1C8FFAB18CFFE318C034
:104E3000130DD98ADCCA289070EE4164196DFE808A
:104E4000450A022A43D08E0E01C102DCFDCFCAFF03
:104E5000CF51BD39E7CBFA33177FFFFFFD6AF96702
:104E6000D0561C6DD1794207297D3FFF542CFFFF9E
:104E7000D0F4282CFFE318C0160CB172D40038947B
:104E80004C08812C25055271651EBFBA69231F8A03
:104E9000A4EEDF2E1C7E77FFFFFFFFFFFFA2F7705F
:104EA000610AF7A2C253BBBBFA620C50F10921CFD1
:104EB00039E4A3484699D9863BEBFFA2FFE318C02B
:104EC0001E1429EED40030847033020214E332D968
:104ED000EB7EB65A4A542589CF57AE7B36CC5583E4
:104EE0001C8C0243038E358E6AF76AA95FFFF93D79
:104EF0009E3C3E40307C2C1827FB3F55D94202BBDC
:104F0000890F5710FFE318C0080F095AE0002A4420
:104F10004CBAB71ACAF0F85D72EF6D0492F9B9EAAB
:104F2000E1194F3FBFCC79E8DDFF7CE8449D80C8A4
:104F3000066F094AABFAADD5FFD6CFFFBBFFFF6FB7
:104F4000A4AB90D575AAF100C198180DFFE318C065
:104F5000060C1146D80039464C75942EAD313EA64C
:104F600071A3078805814BD1E633106DA5F5F6D9FD
:104F70005541345BE7AF57141608C4480EB7FFFF1E
:104F8000FFFF7A2ADF810CAA4A4191F1DCE5F58620
:104F9000A72CE8A2FFE318C0100D1102C00079444D
:104FA0004826E9656030B318D7DD5D7D74FF64A9DC
:104FB000428C58E995AC241CEA77FFFFFFFF6F771E
:104FC00057F67F7FE5AAD11C1B03E1E321B0A0AC1B
:104FD0000386DB3851031AEED041088AFFE318C07C
:104FE000160E287ACC00424C0404507CBBC1F880D9
:104FF00010C401894040409E31851DFFFF744EF36F
:105000001FFEFFF76DFDDFEB7FFFFF45F786618633
:10501000ACF6662FAA446A85E46667DBBD6140DDB5
:10502000ADBCE121FFE318C01811E292E000794421
:105030007070E95CA53735FF9B690E3C51676FFFC7
:10504000D4EB620B49F5FFD7FE77B32FFFFF90E853
:10505000CAE4FFFF9360E6712BC5892FFFB7FC48B8
:10506000B5A8130704A618E818E8FC24FFE318C045
:105070000B0D9146E40039444C3FB1D18AC64DFE38
:105080006FD6410760E2BD69DDBFC1B8852017FD5D
:1050900031C87A7D1218D08A85039FB6D26126A3C3
:1050A000FFFFFB6595A8491082491B25C39D1F88FA
:1050B000B130AC82FFE318C00F0C9126DC00504ADF
:1050C0004C1FFE999069448795917E73B6AE472830
:1050D000C0428880A5BD7FFAD0F89001F1300EF172
:1050E00070600C8A553A3D04389B470252928A8977
:1050F00061D4517770E29356F679D0EBFFE318C094
:105100001710A91EC8CB4B1000FFFF6CB9D6D452A4
:105110003CEEF8FFDD5B96C701109DFD8B641A1E07
:1051200022F0E888744A56BE488965054E832EFFF2
:10513000FFFFFFA882A2926691AADF21E52BD5D5B9
:1051400024A20B4FFFE318C00F0EB096E0018900B8
:105150000077D712359E6B923B9B942047E9BECBDC
:105160003EAA7C7BE27BBCA42EC7252017DEFFFF76
:10517000AB77FFFA049FFC20E564FFFE3AD3943A34
:105180002F7361A691227771A1C329ACFFE318C0E8
:105190000F0D7156E001C810000BAC461A21210614
:1051A0005BBCABAC3CA7FFFDEEC89D3F763C8CAE34
:1051B000A2C67118D77FFE9FFFFFA7FFFFFFFFA2C8
:1051C000E39E070CC30C422C7F6C7204E63DA98160
:1051D000EC8903E3FFE318C0140D614AD4CA0A0640
:1051E0004CD5619999A1994A9A96DFE4BF54F97F09
:1051F000487F4A350A284BF88218FD02EFFFD1FF9D
:105200007EAEBAFFFFE79860FC0160511A9290925F
:10521000C8591FFE633A31C4CFFFA789FFE318C006
:10522000190E1992C8014A280087C3E1A040F8B3BB
:1052300019FEF42721C4C5C8D4561116792FA254DB
:105240003BFFFFFFFFFFFFAD15FEDC8B50A9C8043D
:1052500020B63E150CE261970E290A69DBB42B9C3F
:1052600012D699C0FFE318C01B11C0CAE8018A100A
:105270000000C7894362C228EEEF167B031FD6F2F7
:105280006037C9084241A0A12FEEFC157E2EA2DF97
:10529000FFD19346B152AE6D9FFFD52C158988DDA5
:1052A000FFE0B5A25C4B3AFCD6A260FDFFE318C05C
:1052B0000F0F38F6E8018B1800DB54BF98EA2E6711
:1052C000AF0FDAB7F91B812F659AFCB0C36ADBF424
:1052D0007B36ABFFA3E3FD533A8F2927611219D820
:1052E000E4F732BFB7DBD2D035FF5BFFFD6A34B2E3
:1052F0002AAADEEFFFE318C00D0EF08ED40186005F
:1053000000B8645B2D49E1EE316DA952A28F5B4577
:10531000133A89F4D0DABD5DE54856CFEA1BECDCE0
:105320003DB39D95FF9538874A55FFFFEDDBDE368F
:10533000FFFFE86101600C02C49953FFFFE318C04E
:105340000C0C31DAD001C7100055CD98718EFFFAE0
:10535000FDD6E24519DFFFF7BD0398E9FFFA0638ED
:1053600090C081C7FFFFFFFFFFFDF7FFD7AEFF5FD4
:10537000E312DCC51FECF807C3673A28240D172891
:10538000E970B063FFE318C0160C406EC400005E05
:10539000040A8280B74F59578886B65FF6A058E551
:1053A0002C3E71BB9BFFC2C03FFFFFE86FFF87FE33
:1053B000A85031674FABEA3D02E3E172274D194730
:1053C0006FF7559E1871919D6F6ECC89FFE318C0E1
:1053D00020114152E4CA12444CEBD15AF4EA8A1D1E
:1053E000D89B85456DE857B45DD634F715153C2438
:1053F000FE9F77FFFFEB7F9715151675ED99FFF16F
:10540000082BCED6D7AF7BCE5B12540D4258CE2799
:10541000733E666BFFE318C016119962D4000B0C43
:105420004C5A91B097FF5BFFDABBCCA7B13ADFFFD4
:10543000FD5A920CB0505061D5A8E0359651EFF965
:105440005FFEFD677D42E66EA7FFFFABD391E97F6C
:105450004D5599A50E04826444B405EDFFE318C0D0
:105460000A0E488ED0014C100038BECECE666325A1
:10547000F0A07EAF33432F3AB9EE3EDC0CD47A4431
:10548000B7AE6F3AF3DD9FFFFFFFFFF7EFF1E2A248
:10549000BCE13646CA907FF42A2641138A713260F5
:1054A00015522288FFE318C00B0F008EC80192101E
:1054B00000AC10D2E191A9CD999D4CC608EDEC66E7
:1054C0006EC3447A50C7544B5BE84A9D22BE26CB3C
:1054D000D4EBAFFFD779877FFF88351C7CEAD1FFFB
:1054E000FFEAA1C2805803052320E070FFE318C043
:1054F0000A0DF952EC01C710006E343C81334E5551
:1055000032A72A2DB4FAE9FFFFA9FFE8AC543B1AF1
:10551000A87708C96D659BB5193F5FFF75BC5AD464
:1055200005DF77D7FFFF1FC6709B056919124682FA
:105530006B4B65E1FFE318C00D0FF14EE0006944CD
:105540004C217DB64729D4FFA1BEADD5ABECBFFF42
:10555000C3B0B0C04060045FEDC580A55201EB3B15
:10556000D2020D29E0FFE30601500E93150FFFFF55
:10557000F235F5A9AD8454B89ECB2E3BFFE318C09D
:10558000080D2952D40078844CCD2AFE3EEFF5E672
:10559000151EB7559555FD7F3A7474FCC6EF27F973
:1055A000B4B051323B95FC4AE36DFED172E3C35F68
:1055B000D87AB24B3B42F03A08929AA59A4A422DC9
:1055C000F9FCBF8AFFE318C00E0BEA22D00049C4E1
:1055D00070AD3FFFFDB50B0B8D6FFB55A8B9DCBF60
:1055E000FA7FC2B7B7FFF068FFFFFDC30677FD7F04
:1055F000F89495DE58906A69EF2300BBBAD9E9F1B7
:1056000020E090D362C41ABB1F0DB672FFE318C02E
:105610001910916ECC0042C44CE632B6031D000056
:1056200014FBF3DBFB2D4EC7769F7FE80492EF4817
:105630009E9A8992DA382239DC912CBBFFF94FFF10
:10564000FFE4558E5F1005BE601F587F1A2A0EAD0D
:10565000161D8D41FFE318C01111223ED4004144B4
:1056600070A3C15C68909335721E952143E637F6AE
:10567000AD35FB7B757B919D6E4BE21CCF37A3FF55
:10568000FA149DBFFBF9460EFABF7FFEB67FFFFD01
:10569000147FFFFEA5EB8B893BDC3E90FFE318C037
:1056A000070CD182CC0069C44CEB465662E705C3B7
:1056B0006F3107088D87487FFB897FFCAD5F2B2208
:1056C0000AF294494C02512633F5E042ADFFB7FF90
:1056D000486BFFFFFAD5F9A283E39545581D0B7C73
:1056E000F72D87A2FFE318C00E0F593AC80042CC2D
:1056F0004CA1020D969350938688B279EFFFFD641A
:105700005252719FFFFB545E6FFAF52626B18166F7
:1057100021F4ED4CA3BFFFF9EFFFFFFF1601ABFD36
:105720004AD1A0F79981C5C60A56232CFFE318C0B9
:105730000B0AF072DC00114C041C2848D55B1AC01F
:10574000C4317218C30E9021C697150207415D4EF1
:105750008B3B47E5334EAC9CB87EE76DA152CA4EF9
:105760009A70667556F26A922A0619C7C9D75CC341
:105770005CC43AABFFE318C01A13912EE0005A0A3A
:105780004C314D7D50CFEB7D4B7630780739C45B83
:105790001B7622176234A893A82A8950D38B031E44
:1057A000785A43FDAF622D7D3B3DEEAA436378A757
:1057B000FFD0AAFB85EAFA9B0CDF38D1FFE318C0C3
:1057C000060D192ADC0041C44CD053E4B21ECA3E77
:1057D0000E86A6E72B777EA6F66A7FF47FA8B382B3
:1057E0000E80227B1F967D7FE63FF067FFFD1FFF47
:1057F000AC89EFFFFFFFF235E62D4A3B8A70606C03
:105800005F579103FFE318C00C0B6932D000414A87
:105810004C43C1D038BB2D99CECBD1171A472A148F
:10582000E7FF4FAA239482A1A1C54E9FE5099439B1
:10583000FAFF52FF654490CDA260E6E786FA44ED98
:105840000445222028D5E5A3DADCCAD4FFE318C03A
:10585000190D28B6C4004A44280628CECFB162C12B
:10586000A069FF6F8741575FBD4C169D21FFFFFF69
:10587000FFFFFF8D45988607C2EEF21E1E8EF3379E
:10588000A07021B8B353FF99A6E7102281B9EF1693
:105890005FE1F2C5FFE318C01F1291EACC0040C4DB
:1058A0007077877FB74F23FF6FF47F4FD7F22819A8
:1058B000D9F0FDB4219769A6B7DAB7FFFD545A3D78
:1058C000AFEBA5DFF57A9DA5BC30802A556E212768
:1058D000B8B89DA6CF386C0A5C8A3794FFE318C02D
:1058E0000F0BE1E6D400394470FFD428020F18DD15
:1058F000FDFE617106FFFF5613FF37AEE5FFFAB7F5
:10590000A867FF95FF92F5FFFEA5DDDF0BDA4243A6
:10591000C054E23BD5C9100EAE688B3CD62F180997
:10592000F4A8F542FFE318C01A0E887EC000624654
:1059300024E34C71A35DCF9CB89043CC52FFF6E1B9
:10594000A7BBF53CC6E37928B7D5FCAFFD7FFFFFC9
:10595000F4AAB852C3ADAE2F0A135E9ACFBD3B0571
:1059600019E1141330519C25DDFFD8A0FFE318C0C6
:105970001A0CF866C0002BC404E51FFFFC55ACA34D
:10598000E9A61AB8C25CD52CFB22B47FFA195EAA2C
:1059900012502BE9B62327200C0500C23050182ED8
:1059A00009BD0313623E105C5C47784E688E228707
:1059B00034573438FFE318C0211299B6D40048C4D4
:1059C000709F438B80606C885FFF9DDBFE4168A702
:1059D000B54F7F237D099C00173E5C1C0B1CF8C152
:1059E000A18FE62EB536FF50DFFD2AF84992B1743B
:1059F0003C97087279C6CFA35EBEDFFDFFE318C0F7
:105A000011110222E000788E70FB6E731BF9A65212
:105A100033CADFBA822B14294ADFFFF8AC203D4F8E
:105A20003A97F4FFEA70E98388A8F357FAE9D25C61
:105A3000B5FFFAC87FFFFFB0A1A3E9E9A06605A200
:105A4000249C606DFFE318C0080D29EAE800504A65
:105A5000705F7FFE61CBFFFFF2FB1FFFFE65A95A5F
:105A600069D4487AFFFF314A565D5815C5C3841B77
:105A7000F586BAD231BE8FFFFFFFFFDC1645B8A412
:105A800027128B89646A76BFB7ED63BDFFE318C048
:105A90000E0CD9DADC00394E707FFFF97A850D1EC5
:105AA000FFFFFF9E628706C84C6FFEB30EFD4D11CF
:105AB0004B8A848F7FFFFFFFFFFFFFFFFCB56AACBF
:105AC000AC556E1B5B72BEDA33AF76FCCA30079BF7
:105AD000DBFFBE84FFE318C0150C597ED00059448B
